S01300004C6564426C696E6B696E672E73726563CE
S1130400FFFFFFFFFFFFFFFFFFFFFFFFFEFFFFFFF9
S113A00008E8FF1FCDA60000A1A6000033A70000AA
S113A010000000000000000000000000000000003C
S113A0200000000000000000000000003FA7000046
S113A0300000000000000000E5A7000043A60000A7
S113A0407DA7000085A700008DA7000095A700004C
S113A050DDA70000DDA70000DDA70000DDA70000EC
S113A0609DA70000A5A70000ADA70000B5A70000AC
S113A070BDA70000C5A70000CDA70000DDA7000014
S113A080DDA70000DDA70000DDA70000DDA70000BC
S113A090DDA70000DDA70000DDA70000D5A70000B4
S113A0A0DDA70000DDA70000DDA70000DDA700009C
S113A0B0DDA70000DDA70000DDA7000061A500000A
S113A0C000B5C9B201290FD05BD3032918D011D32D
S113A0D0052925D01CD3072932D029D309293FD0FB
S113A0E036D30A2944D04CE00168012393400B4342
S113A0F0036046E04168012393400B43436040E022
S113A10020494158012393400B431E49435038E0F2
S113A1101D494158012393400B431B49435030E0F0
S113A1201A494158012393400B431849435028E0EE
S113A13017494158012393400B431549435020E0EC
S113A14014494158012393400B431249435018E0EA
S113A15011494158012393400B430F49435010E0E8
S113A1600E494158012393400B430C49435008E0E6
S113A170822149014158012393400B438221490123
S113A180435000BD041000000C100000101000002B
S113A1901810000034100000381000003C100000BB
S113A1A010B48B00C3580D4C1C40D2B21202E023F1
S113A1B0DB00134023438900435010BC704710B4A4
S113A1C08B00C358064C1C40D2B21204F0231B036C
S113A1D0134023438900435010BC7047FFF8FFFF2E
S113A1E0FFFFF0FF30B48C000459D2B252000225B4
S113A1F02A4022438C0002518A008258DBB21C00A0
S113A200E407E40F14438900445030BC70478900CC
S113A21040588021490408407047020088001358C0
S113A22080204004184389005050704710B5130033
S113A230DBB2002B04D1436901248C40A343436166
S113A240D2B2012A04D1426901238B4013434361F2
S113A25010BD426801238B401343436070478268FA
S113A26001238B40134383607047C26801238B40F2
S113A2701343C36070470022030A8B420BD20309C5
S113A2808B4219D243088B422ED2411A00D2014686
S113A290524110467047FF2209023FD012068B42FA
S113A2A005D3121209028B4201D3121209020309C7
S113A2B08B4219D300E0090AC3098B4201D3CB01B5
S113A2C0C01A524183098B4201D38B01C01A5241F7
S113A2D043098B4201D34B01C01A524103098B42FB
S113A2E001D30B01C01A5241C3088B4201D3CB00E6
S113A2F0C01A524183088B4201D38B00C01A5241C9
S113A30043088B4201D34B00C01A5241884200D308
S113A310401A5241CFD201461046704708B500F0AA
S113A32001F808BD704770B40123002413E00168EC
S113A330001D194202D04D466918491E0C60091DC2
S113A340121F042AFAD20D00960701D50C80AD1C09
S113A3501A4000D02C700268001D002AE7D170BC9E
S105A360704740
S113A4100121C006C00E8140914801607047F0B52B
S113A420020052B2002A1CD518230F258D4C0200BD
S113A43052B22A40083A92089200060076B2354099
S113A440083DAD08AD006559FF26C7001F40BE405A
S113A450B5438901C9B2C000034099402943A150C2
S113A46015E0814A1823040064B2A408A400145916
S113A470FF25C6001E40B540AC438901C9B2C500E2
S113A4802B409940214340B2800880001150F0BD18
S113A49080B5411E80225204914201D301200EE076
S113A4A0401E7249086003210020C043FFF7B7FF34
S113A4B000206F49086007206E490860002002BD33
S113A4C080B500F00FF800F02EF81F20FFF7A0FF72
S113A4D001211F20FFF7A3FF00F06FF86648FFF784
S113A4E0D7FF01BD10B5654C0C2208212000FFF7F1
S113A4F0E7FD0D2208212000FFF7E2FD01220521DE
S113A5005F48FFF74DFE01221D215E48FFF748FE1C
S113A510012205215C48FFF789FE01221D215B48C9
S113A520FFF784FE10BD10B50B2208215348FFF736
S113A530C7FD574C01220C212000FFF731FE0022F9
S113A5400C215448FFF772FE012301220C21200044
S113A550FFF748FE0A220C212000FFF730FE10BD51
S113A56010B54B4C0C212000FFF751FE00280CD0F5
S113A57049480168491C01600168042901D100218E
S113A58001600C212000FFF748FE10BD80B5424851
S113A5900068002805D0022809D005D3032809D073
S113A5A00AE000F00AF807E000F011F804E000F017
S113A5B018F801E000F026F801BD80B51D213348EC
S113A5C0FFF747FE05213048FFF743FE01BD80B584
S113A5D01D212E48FFF743FE05212B48FFF73FFEC0
S113A5E001BD10B52D4C2068FA218900FFF743FE08
S113A5F0002906D12068002803D005212248FFF74E
S113A60034FE10BD10B5254C2068FF214E31FFF7F4
S113A61032FE002906D12068002803D01D211B48E2
S113A620FFF723FE2068FA218900FFF724FE0029A2
S113A63006D12068002803D005211348FFF715FE32
S113A64010BD10B5154C2068401C2060FFF79EFF1C
S113A65020680021C943884201D10020206010BD38
S113A66000E100E01CED00E000E400E014E000E0A4
S113A67018E000E010E000E0F5280000007004405D
S113A68000C0044000D00440C0F00F4000F10F406F
S113A69000B0044080F00F4000E0FF1F04E0FF1F03
S113A6A0FEE7000010B5074979441831064C7C4494
S113A6B0163404E0081D0A68891888470100A1427D
S113A6C0F8D110BD2C0000003800000072B6044818
S113A6D0044901600448804762B60448004700000A
S113A6E008ED00E000A0000071A7000055A70000DD
S113A6F037FCFFFF0800000000E0FF1F000000001F
S113A70000F00DF8002801D0FFF7CCFF00BF00BF18
S113A710002000BF00BF00F004F800F006F801209C
S113A720704780B5FFF7CCFEFEE780B500F002F875
S113A73001BDFEE70746384600F002F8FBE7FEE7F6
S113A74080B500BF00BF024A11001820ABBEFBE772
S113A750260002000548014603B4684680F30988D0
S113A76000BF00BF00BF00BFFFF7CAFFA5EDF5FEA5
S113A77000200149086070470081044000480047F8
S113A780DDA7000000480047DDA70000004800479F
S113A790DDA7000000480047DDA70000004800478F
S113A7A0DDA7000000480047DDA70000004800477F
S113A7B0DDA7000000480047DDA70000004800476F
S113A7C0DDA7000000480047DDA70000004800475F
S113A7D0DDA7000000480047DDA70000004800474F
S109A7E0DDA70000FEE706
S903A75500
